:020000040800F2
:100000000807002091010008470F0008F10E0008C2
:1000100000000000000000000000000000000000E0
:100020000000000000000000000000006512000851
:100030000000000000000000B90F00085113000884
:10004000C101000800000000C1010008C101000852
:10005000C1010008C1010008C1010008C101000878
:1000600000000000C1010008C1010008C101000832
:10007000C1010008C1010008C10100080000000022
:100080008116000800000000000000009114000824
:10009000C1010008AF14000861150008C101000883
:1000A000C1010008C1010008C1010008551900087C
:1000B000C101000800F002F800F03EF80CA030C8C2
:1000C000083824182D18A246671EAB4654465D46D4
:1000D000AC4201D100F030F87E460F3E0FCCB64660
:1000E0000126334200D0FB1AA246AB4633431847E1
:1000F0009C1D0000BC1D0000103A02D378C878C1D6
:10010000FAD8520701D330C830C101D504680C6059
:10011000704700000023002400250026103A01D378
:1001200078C1FBD8520700D330C100D50B607047AF
:100130001FB51FBD10B510BD00F0C6FD1146FFF77D
:10014000F7FF01F085FD00F0DEFD03B4FFF7F2FFDD
:1001500003BC00F013FE000070B505460C461646C1
:1001600002E00FCC0FC5103E102EFAD2082E02D39B
:1001700003CC03C5083E042E07D301CC01C5361FAE
:1001800003E021782970641C6D1C761EF9D270BDC5
:100190000F4880F308880F480168090E0E4A914203
:1001A00005D10E480E4901600E480F4901600F4805
:1001B00080470F480047FEE7FEE7FEE7FEE7FEE761
:1001C000FEE700000B480C490C4A0D4B704700003D
:1001D00008070020040000001F0000001810024063
:1001E000010000000000014000000000551300085D
:1001F000B5000008080100200807002008030020BF
:1002000008030020F8B5042A2CD3830712D00B78FA
:10021000491C0370401C521E83070BD00B78491CED
:100220000370401C521E830704D00B78491C0370D6
:10023000401C521E8B079B0F05D0C91ADF002023DC
:10024000DE1B08C90AE0FFF787FFF8BD1D4608C995
:10025000FD401C46B4402C4310C0121F042AF5D2A6
:10026000F308C91A521EF0D40B78491C0370401CC5
:10027000521EEAD40B78491C0370401C012AE4D4B6
:1002800009780170F8BD002203098B422CD3030AC0
:100290008B4211D300239C464EE003460B433CD4D3
:1002A000002243088B4231D303098B421CD3030A3B
:1002B0008B4201D394463FE0C3098B4201D3CB016B
:1002C000C01A524183098B4201D38B01C01A52419B
:1002D00043098B4201D34B01C01A524103098B429F
:1002E00001D30B01C01A5241C3088B4201D3CB008A
:1002F000C01A524183088B4201D38B00C01A52416D
:1003000043088B4201D34B00C01A5241411A00D21C
:1003100001465241104670475DE0CA0F00D0494285
:10032000031000D34042534000229C4603098B42F5
:100330002DD3030A8B4212D3FC22890112BA030A7D
:100340008B420CD3890192118B4208D389019211FF
:100350008B4204D389013AD0921100E08909C30984
:100360008B4201D3CB01C01A524183098B4201D386
:100370008B01C01A524143098B4201D34B01C01A71
:10038000524103098B4201D30B01C01A5241C308E9
:100390008B4201D3CB00C01A524183088B4201D358
:1003A0008B00C01A5241D9D243088B4201D34B0073
:1003B000C01A5241411A00D20146634652415B10B5
:1003C000104601D34042002B00D549427047634696
:1003D0005B1000D3404201B50020C046C04602BDBC
:1003E0007047704770470000F0B50C46871A9C4173
:1003F0000D46861A9D4103D2C01BA141D21963410B
:100400000D0D1F0DC94EEC1BAE435CD07F057F0D5B
:100410000026002F51D02D05AC46A943DD02012353
:10042000ED0A1B051D4320231B1B24D41746E74060
:10043000381871412F46E740CC199D4028183146A5
:1004400061410C0D27D161449A4013D50023401C13
:10045000594152000ED14008400001224B00520584
:10046000D34207D305204007C14201D5B04900E07F
:10047000B0493046F0BD6B00002A00D001229A1826
:100480001F23203C1B1B01D5002302E0E540281858
:1004900071410C0DD7D0012424050919C407CD07DB
:1004A00040084908E40F28436144002CD5D00024BB
:1004B000401C61419A40D0D1CDE76A05520DD9D197
:1004C000C90FC907D5E79C4D4E00002801D0012473
:1004D00000E0002434195F00002A01D0012600E06A
:1004E0000026BE19954FAC420CD8AE420AD8B44291
:1004F00006D001256D05EC42BCD010461946F0BD72
:100500009942FCD000203946F0BDF0B51FB40C462E
:100510000F46811A9F412546861A9D4106D2012524
:10052000ED076F40401ABC4152187B41210D1E0D52
:100530008D1BAC467D4D8D437ED075056D0D7CD0F9
:100540000D05AE46AC431B031B0B794D52429D413A
:10055000202366469B1B14D31746F7403818002605
:100560000090744160462F460741E41900989D4071
:100570002818664116D4714671189A4025D5012372
:1005800020E093182A466A415200002B00D0521CEA
:100590001E23203E9B1B002B61DD3541EE172818E2
:1005A0006641E8D5001876415B1C9A4000D3401C98
:1005B0004B05F3181524E34010D3002B52D071469D
:1005C0007118D30FC01802D3491C05B0F0BD012328
:1005D000DB079A42F9D140084000F6E701225205B4
:1005E000B21801D1002853D00123CC0ADB02994371
:1005F000891E002A08D1020C03D0020C0004103915
:1006000002E00246002020390023550B05D11202DA
:100610000823550B01D152010D23550C01D11201B4
:100620001B1DD50C01D192009B1C150D01D1520050
:100630005B1C2025EE1A01E02CE022E00546F54087
:1006400015439840CA1AE10769181305C918002A0A
:10065000BBDA032040070818C10FC9070FE0714635
:100660006118B2E7F10740080843711071444A006D
:100670000CD001235B059A42A7D2C90FC9070020FD
:10068000A3E74905490D26D1002001E00028F4D157
:1006900000219AE7284D6600002801D0012100E0E2
:1006A000002171185F00002A01D0012600E0002619
:1006B000BE19224FA94210D8AE420ED8B14208D07E
:1006C00001256D05E94206D01946A80241401046B1
:1006D0007BE79C4201D0214677E70020394674E74A
:1006E00010B50C465C4005D50124E4076340FFF7D4
:1006F0000CFF10BDFFF778FE10BD30B40C465C4017
:1007000004D50124E407634030BC6DE630BCFCE650
:1007100070B50124E40761400D465D4002D4FFF747
:1007200063FE70BD6340FFF7F0FE70BDFF07000081
:100730000000F0FF0000F07F0000E0FF0000F87F05
:10074000F0B5F94D0C091E092C402E402F468BB0F8
:10075000A7437DD0B543FCD0002E7AD0002CFCD02E
:100760000D465D40ED0F2543AC1BFF25AD0464191C
:100770000894C502440DC9022143500DDC02044314
:100780000120C00701430443D2020191200C110C47
:1007900000958C46010423468B430A916146090467
:1007A000E24D8A430991010A7D444919803909784B
:1007B00005464D4301266D18F605751B6943C90CA6
:1007C000640B891C4C436418B5012C1B250C2E04AA
:1007D000B4434C434D43210C691889090591009D90
:1007E000E90701D00121C90704912C460199670846
:1007F000CD072F434C08059DE10B4D432D0C294699
:100800006646754302950D4645432E46029D7D1B67
:10081000B44100950D465D4301942C0C2F040D4608
:100820005543AE462D0C3D43029503947546049CFA
:100830002D04641B049406D2029C039D641C0026B4
:1008400075410395029401AC70CC009F7D1B01E0C3
:100850003EE162E1B44109040095079101940599D4
:10086000A4086143090C0C464443650BE7040C469D
:1008700066467443A646640B3C4303950294744653
:10088000049DE4042C1B049406D2029C039D641C6A
:10089000002675410395029401AC70CC009F7D1B2E
:1008A000B44101940C465C430095650FE7000C468B
:1008B0005443A646640F3C43039502947446049D3A
:1008C000E4002C1B049406D2029C039D641C0026A9
:1008D00075410395029401AC70CC009F7D1BB4411F
:1008E000AE09AF06049DC900AD092F43049DA406BF
:1008F000AD060495079D344369180791059DE10BEA
:100900004D432D0C29466646754302950D464543D9
:100910002E46029D7D1BB44100950D465D4301941A
:100920002C0C2F040D465543AE462D0C3D4302952D
:1009300003947546049C2D04641B049406D2029C07
:10094000039D641C002675410395029401AC70CC94
:10095000009F7D1BB44101948C050694079C890A75
:10096000611800950791019C0599A4086143090C41
:100970000D464543680BEF040D46644665436C0B1A
:100980003C43049FED047D1BAC4602D20025641C51
:100990006841009E019D371B8541084658430195DB
:1009A0000C46460FC5005443600F28436546E400DB
:1009B0002C1B02D20025401C6E41019D3F1AB541FF
:1009C0002846BD09800628438446A009BF064E027A
:1009D0000699A40676180743079D002068410A99E6
:1009E000079019430020099B00906046FF191343AC
:1009F0004041E20F64003A43A4460446D71A8C41B2
:100A0000A04203D90120009020463A46C70F94180F
:100A100040416246D20F2243644664000494009C25
:100A2000BE466400D71AA446044602978C41774616
:100A3000002F01D1A04204D96046401C8446029A8E
:100A40002046C40FA64694184041049A0546D20F8A
:100A5000224364466400D31A8D417146002901D1B6
:100A6000A84202D928461A46641C104301220028D5
:100A700000D0164361020020079B891904465C419F
:100A80000223002C02DB491813466441089DCE0A5C
:100A90002D145D194B056705E10A2C050D19089900
:100AA0003E43C9076940002B08D0934006D300227B
:100AB000761C5141002B01D1760876001C4A002D8E
:100AC00043DB154241D0AA433FD030460BB0F0BDC6
:100AD00006180D464D41174C7642AC411AD3951875
:100AE0001C465C41134A6D42A24113D301225205B8
:100AF0004C00D4420AD15C00D4420BD04B4002D50A
:100B000092021143E2E749004908DFE75940C90F63
:100B1000C90718E000200849D8E7054801420DD16F
:100B20000342F7D0F2E700000000FF076016000064
:100B30000000F07F0000E0FF0000F87F11485940FE
:100B40000143C01241400020C0E70123089A9B06E0
:100B50009A4205DC032252078918C90FC907B5E775
:100B6000052252078918074A1143D2125140ADE7B6
:100B700070B515461C4602460B4628462146FFF72F
:100B8000DFFD70BDFFFFFF7F0346CA02400D10B5B9
:100B900010430A1504D00124E4072043002A05DB92
:100BA0000A4CA21A04D4D040FF2A00DD002010BD58
:100BB0004A00002B01D0012000E000201018012283
:100BC0005205D042F2D8C817C04310BD1E04000021
:100BD0000121C9050123411842001B06D3185B0EF1
:100BE0000AD0C1100722D206891840075242D142CA
:100BF00001D5520089187047090208D50146002A1C
:100C000003D0C10FC9070020704710467047420249
:100C100002D0002002497047072109050143F4E78B
:100C20000000F87F10B5FF231B0644009C421DD82E
:100C30004C009C421AD80346124A0B4307D4401A70
:100C400002D3EFF3008010BDEFF3008010BD081A4F
:100C500006D2EFF3008001219043C907084302E068
:100C6000EFF30080904380F3008810BD0D231B0438
:100C70001A4204D01146002000F006F810BD00F022
:100C80001BF810BD00000090C80212D54803400FA9
:100C9000002804D0C803C043012188407047EFF307
:100CA00000800001000903210907084380F3008840
:100CB000704700207047000010B5024800F02BF884
:100CC00010BD00000000C07F754600F053F8AE462E
:100CD000050069465346C008C000854618B020B5D7
:100CE000FFF770FA60BC00274908B6460026C0C569
:100CF000C0C5C0C5C0C5C0C5C0C5C0C5C0C5403DD4
:100D000049008D46704710B50446C046C04620468F
:100D1000FFF71BFA10BD10B50C461107090F092982
:100D200004D00A290AD008290CD104E01146082071
:100D3000FFF7AAFF06E0510606D501E0510601D5EE
:100D40000120C007214610BDD10607D501010909C0
:100D5000CC084907000E0006044309E0410F2002B9
:100D60004907000A0143200E00061D22D14101431C
:100D70000846E7E700487047A8000020014918200E
:100D8000ABBEFEE726000200704710B5012123200C
:100D9000400400F013F900F0BDF800F089FB00F00A
:100DA000E1FB00F037FC002000F06EFC00F034FBAB
:100DB000012000F071FB00F0D1FD022000F030FEB8
:100DC00010BD10B50246002003E01478521C231811
:100DD000D8B20B464C1EE1B2002BF6D110BDF0B5D7
:100DE0000A4600210023002400BF3DE001258D407C
:100DF0002B4615681D402C469C4234D11579012D97
:100E000002D01579022D16D185684F000326BE4009
:100E1000B543856055794E00B54086683543856099
:100E2000858801268E40B5438580858896798E40D9
:100E3000B6B23543858005684F000326BE40B543F2
:100E4000056015794E00B540066835430560C568F4
:100E50004F000326BE40B543C560D5794E00B5406E
:100E6000C6683543C560491C1029BFD3F0BDF0B535
:100E7000002300244D07EE0E1546B5402B46CD103D
:100E8000AE0005462035AD594E07F70E0F26BE4081
:100E9000B543CE10B60007462037BD51CD10AE0089
:100EA0003D46AD591D432C46CD10AD003E46745114
:100EB000F0BD02460020938A0B40002B01D0012098
:100EC00000E0002070470185704700000449016080
:100ED000002101710121417100218171C1717047AF
:100EE000FFFF0000002A01D0816100E0018570470A
:100EF00000BFFEE710B510210920C006FFF7D9FF9B
:100F00000121081AC4B2224610210920C006FFF7A9
:100F1000E9FF10BD1CB56846FFF7D8FF1020009010
:100F200003216846417101210171C1710021817164
:100F300069460920C006FFF752FF10210920C006AC
:100F4000FFF7C1FF1CBD704700218278002A27D01F
:100F5000184A03231B02D21803789B109B00D15818
:100F600002789207D30EFF229A400B46934319460C
:100F700042789207120E03789B07DB0E9A401143CA
:100F80000C4A03231B02D21803789B109B00D150FC
:100F90000278D306DB0E01229A40064B1A6007E066
:100FA0000278D306DB0E01229A40024B80331A608E
:100FB0007047000000E100E070470000002905D004
:100FC000054A52690243044B5A6104E0024A5269DD
:100FD0008243014B5A61704700100240002905D03E
:100FE000054AD2690243044BDA6104E0024AD2693D
:100FF0008243014BDA61704700100240002905D09E
:10100000054A92690243044B9A6104E0024A9269DC
:101010008243014B9A61704700100240FEB50446BE
:1010200000250026002002900190009000278648AD
:1010300040680C2108400546002D06D0042D07D03D
:10104000082D08D00C2D2CD128E0804820602BE002
:101050007E48206028E07C4840680F2189040840D1
:101060000646794840680321C90308400290B00C45
:10107000861C0298002803D17548374647430BE089
:101080007148C06A0007000F401C01906F48019929
:10109000FFF7F9F870430746276005E06D482060C8
:1010A00002E06A48206000BF00BF67484068F02146
:1010B000084005462D096848405D00902068009969
:1010C000C840606060484068072109020840054642
:1010D0002D0A6148405D009061680098C140A160A0
:1010E0005948006BFF2101310840884202D05B481B
:1010F000E0600DE0544840680121890308408842BF
:1011000003D0A0684008E06002E0A0688008E060CA
:101110004D48006B40210840402802D050482061D3
:1011200002E00120C00320614748006B1021084005
:10113000102802D04548606101E0206860614248A3
:10114000006B8007800F002802D1A068A06119E021
:101150003D48006B8007800F012802D12068A06104
:1011600010E03948006B8007800F022802D180030D
:10117000A06107E03448006B8007800F032801D18D
:101180003248A0613048006B032109040840002860
:1011900002D1A068E06120E02B48006B0321090424
:1011A000084001210904884202D12068E06114E06E
:1011B0002548006B032109040840012149048842A5
:1011C00002D18010E06108E01F48006B0321090490
:1011D0000840884201D11D48E0611B48006B032193
:1011E00089040840002802D1A068206220E0164847
:1011F000006B03218904084001218904884202D13F
:101200002068206214E01048006B03218904084024
:101210000121C904884202D10011206208E00A4875
:10122000006B032189040840884201D107482062ED
:101230000548006B80210840802802D00548606284
:1012400000E06762FEBD00000010024000127A005C
:1012500000093D00006CDC0214000020809FD500D6
:1012600012800000704700000CB500200190009033
:1012700033480068012108433149086000BF304805
:1012800000680221084000900198401C01900098DD
:10129000002804D10521090301988842EFD128488C
:1012A000006802210840002802D00120009001E0DF
:1012B000002000900098012840D1112021490860A9
:1012C0001F4840681E494860084640684860084614
:1012D00000680121090688431949086008464068EA
:1012E0007B21C903884316494860084640680521A8
:1012F000C9040843124948600846006801210906EC
:1013000008430F49086000BF0D48006801214906E5
:1013100008400028F8D00A48406880088000084942
:10132000486008464068022108430549486000BFFC
:10133000034840680C2108400828F9D10CBD000082
:1013400000100240002002400048704724000020A6
:101350007047000010B51B48006801210843194977
:101360000860084640681849084016494860084621
:1013700000681649084013490860084600680121C2
:10138000890488430F490860084640683F210904E2
:1013900088430C4948600846C06A00090001C862D9
:1013A0000846006BFF21543188430649086308460C
:1013B000406B40084000486300208860FFF754FFFE
:1013C00010BD0000001002400CB8FF08FFFFF6FE41
:1013D00070B50446084800F096F9051929460648F4
:1013E00000F012FA01220221034800F0A2F90221C2
:1013F000014800F066F970BD0020004010B50022E1
:101400000221044800F095F90221024800F059F940
:1014100010BD0000002000400EB5684600F034FA10
:1014200001210802FFF7DAFD0A4801900A490B483A
:101430000068FEF728FF81B2684601800021018123
:1014400041806946064800F0E1F90121044800F0B6
:101450003BF90EBDFFFF0000102700000000002038
:101460000020004010B50221084800F04FF9012883
:101470000BD10221054800F021F9FFF7BFFF00F072
:10148000DBFAFFF761FF0121017010BD0020004071
:1014900010B5FFF7E7FF10BD38B5044613216846C5
:1014A0000170447001218170FFF74EFD38BD704717
:1014B00000B58BB009A8FFF709FD06A800F0E4F914
:1014C00001A800F097F940200990022108A80172B4
:1014D00003214172002181720121C17209A90920F1
:1014E000C006FFF77CFC052206210920C006FFF795
:1014F000BEFC01214804FFF781FDFF21E031684671
:10150000018315480790002168464183018408A89B
:10151000817006A9114800F079F9962003906021A6
:10152000684681800121C1800021018201A90B4808
:1015300000F00AF90821094800F050F90121074894
:1015400000F0AEF80121054800F0BEF80121034883
:1015500000F0C8F80BB000BDCF0700000044014008
:101560007047000000B58BB009A8FFF7AFFC06A8D4
:1015700000F08AF901A800F03DF9802009900221CD
:1015800008A8017203214172002181720121C172F8
:1015900009A90920C006FFF722FC0522072109201E
:1015A000C006FFF764FC01218804FFF727FDFF2137
:1015B000E031684601831548079000216846418361
:1015C000018408A8817006A9114800F01FF996202F
:1015D00003906021684681800121C1800021018241
:1015E00001A90B4800F0B0F80821094800F0F6F80E
:1015F0000121074800F054F80121054800F064F883
:101600000121034800F06EF80BB000BDCF070000C9
:10161000004801400EB501210220FFF7DFFC0D4814
:1016200001900D496846018000210181418081724D
:1016300069460A4800F0EAF80121084800F03EF83F
:1016400001221146054800F074F80121034800F01A
:101650003BF80EBDE7030000BF5D00000004004042
:1016600010B50121054800F051F8012805D10121EC
:10167000024800F026F8FFF73DFC10BD00040040D2
:1016800010B5FFF7EDFF10BD38B5044610216846D0
:101690000170447001218170FFF756FC38BD0000D5
:1016A000002904D0028880231A43028003E00288C4
:1016B000014B1A40028070477FFF0000CA4302823C
:1016C0007047CA4302827047002904D00288012370
:1016D0001A43028003E00288014B1A4002807047DF
:1016E000FEFF0000002907D04422125A0123DB0329
:1016F0001A4344231A5205E04422125A53045B0C45
:101700004422135270470146486A704730B502467A
:10171000002000230024158A0D402B4695890D409A
:101720002C46002B03D0002C01D0012000E000202B
:1017300030BD002A03D083890B43838102E0838973
:101740008B4383817047000070B500240022002382
:10175000058C1C4E35400584028C8388048B194D02
:101760006F3D2C40B51E2C400D882C43751E2A4021
:101770008D892A434D882A43134DA84208D0134D22
:10178000A84205D0124DA84202D0124DA84212D153
:101790000C4DED1F2A40CD892A430A4DED1E2A40EB
:1017A0008D882A43074DFF3D2B400B4D2B400D8A62
:1017B0002B434D8A2B43838004838D6845630284C9
:1017C00070BD0000FEFF0000002C01400040014001
:1017D0000044014000480140FFFD00000A4600218E
:1017E000018B034B19400B46134319460183704785
:1017F000F7FF0000002101804180818081608181AC
:10180000C181018241827047416370470022028892
:10181000154B984206D001239B07984202D0134BE8
:10182000984203D1124B1A404B881A43114B9842ED
:1018300003D0114B1A400B891A4302804B68C362D4
:101840000B880385084B984208D00C4B984205D072
:101850000B4B984202D00B4B984201D18B7A0386F6
:101860000123838270470000002C014000040040E7
:101870008FFF000000100040FFFC0000004001400E
:1018800000440140004801400021C943416000215B
:1018900001800181418081727047000010B52649A6
:1018A000264800F0FEF801281AD12349234800F009
:1018B000E3F823484078802802D10020204948706E
:1018C0001E4800F0B3F9C1B21D484278801C815413
:1018D000801E4078401C1A4948703220FFF778FD7E
:1018E0001849164800F0DDF8012806D1134800F029
:1018F0009DF91449114800F0BFF813490F4800F052
:10190000D0F8012803D110490C4800F0B5F80F4970
:101910000A4800F0C6F8012803D10C49074800F036
:10192000ABF80B49054800F0BCF8012803D1084981
:10193000024800F0A1F810BD050105000038014083
:101940002400002000030300000301000E01110029
:101950000003020010B5FFF7A1FF10BD00B589B06C
:1019600007A8FFF7B3FA01218803FFF747FB01221D
:101970000921C806FFF77BFA01220A210920C006C7
:10198000FFF775FA032040020790022108A80170B2
:1019900003214170002181700221C17007A9092033
:1019A000C006FFF71CFA01A800F045F9E12040024B
:1019B0000190002002900390049006900C20059066
:1019C00001A9114800F0B6F8012210490E4800F0B4
:1019D0008FF801220E490C4800F08AF801220D49C7
:1019E000094800F085F801220B49074800F080F80B
:1019F00001220A49044800F07BF80121024800F066
:101A000044F809B000BD00000038014005010500A0
:101A100000030300000301000E0111000003020097
:101A200038B504461B21684601704470012181705D
:101A3000FFF78AFA38BD000010B5002202490348BA
:101A400000F056F810BD0000050105000038014007
:101A500010B5064800F0EAF82021044800F00AF822
:101A600001220349014800F043F810BD003801404D
:101A7000050105000162704710B5002300220B0C20
:101A800001249C402246026210BD002904D0026855
:101A900001231A43026003E0026852085200026008
:101AA000704770B502460B46002400210025002037
:101AB0001E04350ED9B201268E403146012D02D1C9
:101AC0001668314006E0022D02D15668314001E02F
:101AD000966831401C0C0126A6403446D669344035
:101AE000002903D0002C01D0012000E0002070BDAF
:101AF000F8B503460024002600960025002018466D
:101B00000E04340ECEB200960127009EB7403D462B
:101B1000022C01D1001D02E0032C00D10830002A64
:101B200003D006682E43066002E00668AE430660F6
:101B3000F8BD0000F0B58BB004460D46002700202C
:101B40000A90002620684008400020606668032153
:101B50000903304688430646A8680643666026683F
:101B60002D480640E9686868084329690843064328
:101B70002660A66803210902304688430646686944
:101B80000643A6606846FFF749FA2448844202D11A
:101B900006980A900DE02248844202D107980A90E4
:101BA00007E02048844202D108980A9001E0029898
:101BB0000A9020680121C903084000280CD0296838
:101BC0000A9A5000FEF75FFB074629680A9A500000
:101BD000FEF759FB0E4609E029680A98FEF753FB09
:101BE000074629680A98FEF74EFB0E46286840080B
:101BF000B04200D87F1C20680121C903084000289A
:101C000006D03807460F3846074908403043074694
:101C1000A7810BB0F0BD0000F3E9FFFF00380140E1
:101C20000044004000480040F0FF00000146888C5E
:101C3000C005C00D70474B21C90101600021416002
:101C40008160C1600C210161002141617047000089
:101C500086B0FFF79AF872E0FFF776FB007800286D
:101C60006DD0FFF771FB04466078092861D1607878
:101C7000401EC1B2A01CFFF7A4F86178491EA21C47
:101C8000515C884255D10422A11C05A8FEF7BAFA7E
:101C90000422A11D04A8FEF7B5FA2949059800F011
:101CA0005FF802D22648059006E02649059800F024
:101CB00081F801D2234805902349049800F050F898
:101CC00002D22148049006E02049049800F072F8FE
:101CD00001D21E4804900598FEF77AFF05460022BF
:101CE0001B4BFEF72DFD00221A4B01910090FEF7D1
:101CF000F7FC03910290FEF747FF07463946164866
:101D0000FFF782FD0498FEF763FF05460022104BA3
:101D1000FEF716FD00220F4B01910090FEF7E0FC4C
:101D200003910290FEF730FF074639460B48FFF754
:101D30006BFD002020706070FFF78AFE00BF8BE70C
:101D4000000016C3000016430000B4C20000B442F5
:101D50000000F83F00C062400044014000480140DC
:101D600001230200DB050A430DD4DA4203D49A4270
:101D700007D488427047D84214D4D94212D488423A
:101D8000704780427047DA4203D59A42F9D58142C2
:101D900070475B004200DA4204D24A00DA4201D2C4
:101DA0008142704710B5024AFEF73CFF10BD00BFEC
:101DB0000900160401230A00DB0502430DD4DA42B0
:101DC00003D49A4207D481427047D94214D4D842EE
:101DD00012D48142704789427047DA4203D59A4251
:101DE000F9D5884270475B004A00DA4204D24200CB
:101DF000DA4201D2884270474840414010B5024A59
:101E00004840FEF70FFF10BD0900160480807F7E5A
:101E10007D7C7B7A79787776767574737271717060
:101E20006F6E6E6D6C6C6B6A6A6968686766666512
:101E30006464636362616160605F5F5E5E5D5D5CA0
:101E40005C5B5B5A5A595958585757565655555511
:101E50005454535352525251515050504F4F4F4E71
:101E60004E4D4D4D4C4C4C4B4B4B4A4A4A494949BF
:101E70004848484747474746464645454544444401
:101E8000444343434342424242414141AC1E000865
:101E90000000002024000000F8000008D01E000808
:101EA00024000020E406000014010008006CDC029D
:101EB00000000000000000000102030406070809FA
:101EC00000000000010203040102030406070809E0
:04000005080000B53A
:00000001FF
